:020000040800F2
:10000000005000204D1A0008211800082718000889
:100010002D180008331800083918000800000000E7
:100020000000000000000000000000003F18000871
:100030004B1800080000000057180008631800085B
:10004000951A0008951A0008951A0008951A0008D4
:10005000951A0008951A000841140008951A00081E
:10006000951A0008951A0008951A0008951A0008B4
:10007000951A0008951A0008951A0008951A0008A4
:1000800071180008951A000885180008951A0008CC
:10009000951A0008951A0008951A00084F140008D0
:1000A000951A0008951A0008951A0008951A000874
:1000B000951A000899180008951A0008951A000862
:1000C000951A0008951A0008951A0008951A000854
:1000D000951A0008951A0008AD180008951A00082E
:1000E000951A0008951A0008951A000800000000EB
:1000F0000000000000000000000000000000000000
:0C01000000000000000000005FF808F1A3
:10010C0010B5054C237833B9044B13B10448AFF345
:10011C0000800123237010BD680000200000000047
:10012C00887D000808B5034B1BB103490348AFF3A6
:10013C00008008BD000000006C000020887D0008D5
:10014C0010F8012B11F8013B012A28BF9A42F7D075
:10015C00D01A7047034613F8012B002AFBD1181A4A
:10016C000138704780B586B002AF0346FB7197F932
:10017C00073023F00F035BB243F00C035BB2DBB22E
:10018C003B7397F9073023F00F035BB243F008037E
:10019C005BB2DBB27B73FB791B015BB243F00C03EC
:1001AC005BB2DBB2BB73FB791B015BB243F00803A0
:1001BC005BB2DBB2FB7307F10C024FF0FF33009321
:1001CC0004234E21034803F033F800BF1037BD461B
:1001DC0080BD00BFB400002080B586B002AF0346DE
:1001EC00FB7197F9073023F00F035BB243F00D035B
:1001FC005BB2DBB23B7397F9073023F00F035BB2B2
:10020C0043F009035BB2DBB27B73FB791B015BB27E
:10021C0043F00D035BB2DBB2BB73FB791B015BB22A
:10022C0043F009035BB2DBB2FB7307F10C024FF036
:10023C00FF33009304234E21034802F0F9FF00BF63
:10024C001037BD4680BD00BFB400002080B500AFA4
:10025C00322001F07DFC3020FFF784FF052001F0F7
:10026C0077FC3020FFF77EFF012001F071FC30207D
:10027C00FFF778FF0A2001F06BFC2020FFF772FFDC
:10028C000A2001F065FC2820FFF76CFF0820FFF71F
:10029C0069FF0120FFF766FF022001F059FC0620E0
:1002AC00FFF760FF0C20FFF75DFF00BF80BD80B53E
:1002BC0082B000AF786006E07B685A1C7A601B78CD
:1002CC001846FFF789FF7B681B78002BF4D100BF21
:1002DC0000BF0837BD4680BD80B500AF0120FFF7D9
:1002EC0041FF022001F034FC00BF80BD80B584B01A
:1002FC0000AF786039607B68032B27D801A252F8D5
:10030C0023F000BF210300082F0300083D03000861
:10031C004B0300083B685BB263F07F035BB2FB737B
:10032C001AE03B685BB263F03F035BB2FB7313E014
:10033C003B685BB263F06B035BB2FB730CE03B6836
:10034C005BB263F02B035BB2FB7305E03B685BB203
:10035C0063F07F035BB2FB73FB7B1846FFF702FF76
:10036C0000BF1037BD4680BD80B582B000AF78604D
:10037C000021054804F0DEF9034B1B6800225A6388
:10038C0000BF0837BD4680BD5001002080B483B04B
:10039C0000AF78607A6813469B029B1A044AA2FB52
:1003AC0003239B0A18460C37BD4680BC704700BF20
:1003BC001F85EB5180B483B000AF78607A68134628
:1003CC009B029B1A044AA2FB03239B0A18460C3778
:1003DC00BD4680BC704700BF1F85EB5180B584B013
:1003EC0000AF0346FB8001F0A9FBF860FB88012BF2
:1003FC003CD1404B1B68FA68D31A4FF49672934267
:10040C0034D93D4B1B78002B0CBF01230023DBB2EE
:10041C001A46394B1A70384B1B78002B14BF01232A
:10042C000023DAB2354B1A70334B1B78002B0CD0EF
:10043C0001220221324802F087FD324B01221A7050
:10044C000021314804F070F80BE0002202212C4806
:10045C0002F07AFD2B4B00221A7000212A4804F07E
:10046C0005F9244AFB68136000F03AFCFB88202B4A
:10047C003CD1264B1B68FA68D31A4FF49672934200
:10048C0034D9234B1B78002B0CBF01230023DBB288
:10049C001A461F4B1A701E4B1B78002B14BF0123DE
:1004AC000023DAB21B4B1A70194B1B78002B0CD0A3
:1004BC0001221021124802F047FD174B01221A703D
:1004CC000421114804F030F80BE0002210210C48F4
:1004DC0002F03AFD104B00221A7004210A4804F075
:1004EC00C5F80A4AFB68136000F0FAFB00BF10372E
:1004FC00BD4680BDB0020020240200201003002065
:10050C0000080140AC02002008010020B4020020C9
:10051C002502002011030020AD02002080B582B01E
:10052C0000AF0346FB71FB79613B052B62D801A23E
:10053C0052F823F0590500087F050008A5050008AE
:10054C00CB050008F1050008F90500082D4B012228
:10055C001A702D4B01221A70012202212B4802F035
:10056C00F3FC2B4B01221A7000212A4803F0DCFF0C
:10057C0041E0244B00221A70234B00221A700022F7
:10058C000221224802F0E0FC214B00221A700021CB
:10059C00204804F06BF82EE01F4B01221A701F4B01
:1005AC0001221A7001221021184802F0CDFC1C4BBC
:1005BC0001221A700421174803F0B6FF1BE0164BFA
:1005CC0000221A70154B00221A70002210210F48BD
:1005DC0002F0BAFC124B00221A7004210D4804F0F0
:1005EC0045F808E00F4B01221A6004E00D4B002285
:1005FC001A6000E000BF00F073FB00BF0837BD4677
:10060C0080BD00BF10030020240200200008014020
:10061C00AC0200200801002011030020250200205C
:10062C00AD020020B802002080B588B000AF786021
:10063C007B681B78422B02D17B6801337B607B6823
:10064C00FB612B49F86905F0DFFEB861BB69002B33
:10065C001FD0B86905F0CAFC78617B69002B18DBE8
:10066C007B69642B15DC234A7B691360224BDB68A6
:10067C00204A126802FB03F3204AA2FB03235B0906
:10068C003B6100211C4803F04FFF1B4B1B683A6970
:10069C005A631749002005F0B7FEB861BB69002BFF
:1006AC001FD0B86905F0A2FCF860FB68002B18DBC2
:1006BC00FB68642B15DC124AFB6813600E4BDB687D
:1006CC000F4A126802FB03F30C4AA2FB03235B09DB
:1006DC00BB600421084803F027FF074B1B68BA686E
:1006EC009A6300F00FF800BF2037BD4680BD00BFF5
:1006FC00AC7D000808030020080100201F85EB5189
:10070C000C03002080B586B000AF00210220FFF75B
:10071C00EDFD1748FFF7CBFD00210320FFF7E6FDA9
:10072C001348FFF7C4FD00210220FFF7DFFD114B3A
:10073C001B68381D104A142105F0A8FD3B1D1846F6
:10074C00FFF7B5FD00210320FFF7D0FD0B4B1B6815
:10075C00381D0B4A142105F099FD3B1D1846FFF777
:10076C00A6FD0A2001F0F4F900BF1837BD4680BD84
:10077C00B07D000808030020BC7D00080C0300209D
:10078C00C87D000880B500AF642001F0E1F9FFF7E7
:10079C005DFD642001F0DCF9FFF79EFD322001F0D5
:1007AC00D7F900210020FFF7A1FD1548FFF77FFDC9
:1007BC0000210120FFF79AFD1248FFF778FD0B216D
:1007CC000020FFF793FD1048FFF771FD0B2101206E
:1007DC00FFF78CFD0D48FFF76AFD00210220FFF7A3
:1007EC0085FD0B48FFF763FD00210320FFF77EFD1D
:1007FC000848FFF75CFD084B01221A7000BF80BD52
:10080C00D47D0008DC7D0008E47D0008F07D000844
:10081C00FC7D0008087E00080703002080B500AFAF
:10082C000A4B1B78002B02D1FFF7ACFF0DE0002127
:10083C000020FFF75BFD0648FFF739FD0021012082
:10084C00FFF754FD0348FFF732FD80BD070300207E
:10085C00F0020020FC02002080B582B000AF78606E
:10086C007868FFF777FC0346122B13D908227968B6
:10087C000A4805F0B6FD094B00221A727B68093351
:10088C000A221946064805F0ACFD054B00229A7267
:10089C00FFF7C4FF00BF0837BD4680BDF002002043
:1008AC00FC02002080B584B000AF78607B681B68C8
:1008BC005E4A934240F0B6805D4B1B78FB73FB7B2A
:1008CC002F2B02D9FB7B392B0BD9FB7B3A2B08D076
:1008DC00FB7B2F2B05D0FB7B202B02D0FB7B0A2B29
:1008EC0022D1544B1B78302B09D8524B1B785A1CF5
:1008FC00D1B2504A117019464F4AFB7B5354FB7BC3
:10090C000A2B04D04B4B1B78302B40F28380494B85
:10091C001B781A46484B002199544748FFF79CFF17
:10092C00444B00221A7075E0FB7B4C2B14D0FB7BE4
:10093C00612B11D0FB7B622B0ED0FB7B632B0BD07E
:10094C00FB7B642B08D0FB7B652B05D0FB7B662BDC
:10095C0002D0FB7B532B29D1364B1B78302B09D87B
:10096C00344B1B785A1CD1B2324A11701946324A98
:10097C00FB7B5354FB7B0A2B03D02E4B1B78302B69
:10098C004AD92C4B1B781A462B4B002199542A4BD5
:10099C001B78532B03D1284800F0ACF802E0264812
:1009AC0000F050F8234B00221A7035E0FB7B01332A
:1009BC00224A13441B7803F00403002B08D1FB7B61
:1009CC002C2B05D0FB7B422B02D0FB7B0A2B24D19A
:1009DC00184B1B78302B09D8164B1B785A1CD1B2EC
:1009EC00144A11701946144AFB7B5354FB7B0A2B97
:1009FC0003D0104B1B78302B0FD90E4B1B781A469B
:100A0C000D4B002199540C48FFF70EFE094B0022A8
:100A1C001A7002E000BF00E000BF01220449084840
:100A2C0004F0ADFD00BF1037BD4680BD0044004052
:100A3C0026020020EE020020BC020020C27E00082C
:100A4C00DC01002080B586B000AF78607B681B7835
:100A5C004C2B3CD17B68981C07F10C0307F110025E
:100A6C001F4905F047FC07F10C031E491846FFF718
:100A7C0067FB0346002B0CBF01230023FB753B696E
:100A8C00012B0FD1184AFB7D1370FB7D002B04D07A
:100A9C000021164803F048FD16E00021134803F02E
:100AAC00E5FD11E03B69022B0ED1114AFB7D137061
:100ABC00FB7D002B04D004210C4803F035FD03E032
:100ACC0004210A4803F0D2FD00F00AF904E07B6827
:100ADC001B781846FFF722FD00BF1837BD4680BDB6
:100AEC00147E00081C7E0008100300200801002062
:100AFC001103002080B58AB002AF7860344B1B78AC
:100B0C00132B61D807F1180107F11C0207F1080338
:100B1C00019307F1140300930B462E49786805F0F6
:100B2C00E9FB0346042B4FD1F969294B1B781A4674
:100B3C00C8B2294913465B0013449B0013440B4471
:100B4C0002461A70B969224B1B781A46C8B2224960
:100B5C0013465B0013449B0013440B4401330246C1
:100B6C001A7079691A4B1B781A46C8B21A4913467F
:100B7C005B0013449B0013440B44023302461A706F
:100B8C00134B1B781A4613465B0013449B0013440B
:100B9C00114A1344033307F108010922184605F0E2
:100BAC0020FC0B4B1B781A460B4913465B00134475
:100BBC009B0013440B440C3300221A70044B1B781B
:100BCC000133DAB2024B1A7000BF2037BD4680BD2C
:100BDC0018040020207E00081403002090B583B078
:100BEC0000AF00237B6066E038497A6813465B00EF
:100BFC0013449B0013440B441A78354B1B789A42D0
:100C0C0056D132497A6813465B0013449B00134457
:100C1C000B4401331A782F4B1B789A4248D12B493D
:100C2C007A6813465B0013449B0013440B44023355
:100C3C001A78294B1B789A423AD17A6813465B0092
:100C4C0013449B001344214A134403331846FFF703
:100C5C00F9FE7B683B601CE03B685A1C1B483968FA
:100C6C000B465B000B449B000B441844174913467E
:100C7C005B0013449B001344CA1803461468506865
:100C8C0091681C6058609960127B1A733B68013341
:100C9C003B60124B1B78013B3A689A42DCDB0F4BF2
:100CAC001B78013BDAB20D4B1A707B68013B7B6001
:100CBC007B6801337B60094B1B781A467B68934237
:100CCC0092DB00BF00BF0C37BD4690BD1403002063
:100CDC00190400201A0400201B0400201804002012
:100CEC0080B500AF0B210020FFF700FB1A4B1B78DF
:100CFC00002B01D0194B00E0194B1846FFF7D7FA1F
:100D0C000B210120FFF7F2FA164B1B78002B01D0B8
:100D1C00154B00E0154B1846FFF7C9FA0B210220C2
:100D2C00FFF7E4FA124B1B78002B01D0114B00E0BB
:100D3C00114B1846FFF7BBFA0B210320FFF7D6FA2D
:100D4C000E4B1B78002B01D00D4B00E00D4B1846C1
:100D5C00FFF7ADFA00BF80BD10030020307E000805
:100D6C00E47D0008110300203C7E0008F07D0008A3
:100D7C0024020020487E0008547E00082502002032
:100D8C00607E00086C7E000880B588B000AF00F073
:100D9C007DFE00F09DF800F0E5FA00F0C5FA00F0D9
:100DAC00F3F800F05DF900F095FA00F01DFA00F090
:100DBC0029F9FFF74BFAC82000F0CAFEFFF7E2FC56
:100DCC00374B1B68374A134401221946364804F046
:100DDC00D6FB0021354803F0A7FB0421334803F070
:100DEC00A3FB334B00221A70324B00221A70324B89
:100DFC0000221A70314B00221A70314B00221A70EB
:100E0C00304B00221A70FFF7E9FE2F4B1B68002BAA
:100E1C0042D03B1D00221A605A609A6006237B6008
:100E2C000123BB603B1D1946284801F04BFA2748AB
:100E3C0000F08AFF4FF0FF31244801F05FF823489F
:100E4C0001F062F9F861214801F02CF807237B606E
:100E5C003B1D19461D4801F035FA1C4800F074FF83
:100E6C004FF0FF31194801F049F8184801F04CF9DE
:100E7C00B861164801F016F8F869FFF787FA78613F
:100E8C00B869FFF797FA3861084B1B687A695A639F
:100E9C00064B1B683A699A63642000F059FEB2E76E
:100EAC00A802002028020020DC01002008010020FC
:100EBC001003002011030020240200202502002032
:100ECC00AC020020AD020020B802002084000020FB
:100EDC0080B594B000AF07F12803282200211846F2
:100EEC0005F077FA07F1140300221A605A609A6031
:100EFC00DA601A613B1D00221A605A609A60DA604F
:100F0C000123BB624FF48033FB6200233B6301235C
:100F1C00BB6302237B644FF48033BB644FF4E01358
:100F2C00FB6407F12803184602F0DAFC0346002B99
:100F3C0001D000F08DFA0F237B610223BB610023EB
:100F4C00FB614FF480633B6200237B6207F1140367
:100F5C000221184602F046FF0346002B01D000F098
:100F6C0077FA02237B604FF40043FB603B1D18466D
:100F7C0003F0C6F80346002B01D000F069FA00BF5D
:100F8C005037BD4680BD000080B584B000AF3B1D1E
:100F9C0000221A605A609A60184B194A1A60174B53
:100FAC0000229A60154B01221A73144B00221A75F9
:100FBC00124B4FF46022DA61104B00225A600F4B37
:100FCC0001221A610D4800F0E7FD0346002B01D009
:100FDC0000F03EFA06237B600123BB600723FB6015
:100FEC003B1D1946054801F06DF90346002B01D055
:100FFC0000F02EFA00BF1037BD4680BD84000020E3
:10100C000024014080B500AF124B134A1A60114BFB
:10101C00124A5A600F4B00229A600E4B0022DA6083
:10102C000C4B4FF480421A610A4B00225A61094B57
:10103C0000229A61074B0022DA61064B00221A62E9
:10104C00044801F0B1FF0346002B01D000F000FA78
:10105C0000BF80BDB400002000540040A0860100F9
:10106C0080B596B000AF07F1480300221A605A60B1
:10107C009A60DA6007F1400300221A605A6007F1A7
:10108C00240300221A605A609A60DA601A615A616D
:10109C009A613B1D20220021184605F09AF9504B0D
:1010AC00504A1A604E4B3F225A604D4B00229A60B8
:1010BC004B4B40F2E732DA60494B00221A61484B45
:1010CC0000225A61464B00229A61454803F084F98C
:1010DC000346002B01D000F0BBF94FF48053BB64E6
:1010EC0007F1480319463E4803F09CFD0346002BCC
:1010FC0001D000F0ADF93A4803F0BDF90346002BDE
:10110C0001D000F0A5F900233B6400237B6407F1B8
:10111C0040031946324804F021F90346002B01D054
:10112C0000F096F960237B620023BB620023FB6214
:10113C0000233B6300237B630023BB630023FB631F
:10114C0007F1240300221946254803F0A9FC0346A5
:10115C00002B01D000F07CF907F12403042219467E
:10116C001F4803F09DFC0346002B01D000F070F9E2
:10117C0007F1240308221946194803F091FC034691
:10118C00002B01D000F064F907F124030C2219465E
:10119C00134803F085FC0346002B01D000F058F9EE
:1011AC0000237B600023BB600023FB6000233B61BA
:1011BC0000237B614FF40053BB6100233B623B1D5A
:1011CC001946074804F028F90346002B01D000F01B
:1011DC003FF9034800F062FA00BF5837BD4680BDA6
:1011EC0008010020002C014080B58EB000AF07F143
:1011FC00280300221A605A609A60DA6007F1200313
:10120C0000221A605A603B1D00221A605A609A60D4
:10121C00DA601A615A619A612C4B2D4A1A602B4B79
:10122C001D225A60294B00229A60284B6322DA60F7
:10123C00264B00221A61254B00229A61234803F0A9
:10124C00CBF80346002B01D000F002F94FF4805389
:10125C00BB6207F1280319461C4803F0E3FC034664
:10126C00002B01D000F0F4F8184803F004F9034601
:10127C00002B01D000F0ECF800233B6200237B62D2
:10128C0007F120031946114804F068F80346002BB7
:10129C0001D000F0DDF860237B603223BB600023BB
:1012AC00FB6000237B613B1D00221946074803F0BD
:1012BC00F7FB0346002B01D000F0CAF8034800F0FE
:1012CC00EDF900BF3837BD4680BD00BF500100208E
:1012DC000004004080B500AF114B124A1A60104B4D
:1012EC004FF4E1325A600E4B00229A600C4B0022F4
:1012FC00DA600B4B00221A61094B0C225A61084B25
:10130C0000229A61064B0022DA61054804F0E7F8E6
:10131C000346002B01D000F09BF800BF80BD00BF3E
:10132C00DC0100200044004080B582B000AF0C4BC3
:10133C005B690B4A43F001035361094B5B6903F092
:10134C0001037B607B6800220021102001F02DFA44
:10135C00102001F046FA00BF0837BD4680BD00BF23
:10136C000010024080B588B000AF07F110030022D6
:10137C001A605A609A60DA602B4B9B692A4A43F0D8
:10138C0020039361284B9B6903F02003FB60FB68EF
:10139C00254B9B69244A43F004039361224B9B69C0
:1013AC0003F00403BB60BB681F4B9B691E4A43F0F0
:1013BC00080393611C4B9B6903F008037B607B68FB
:1013CC0000221221194801F0BFFD21233B61184B6B
:1013DC007B610023BB6107F110031946134801F030
:1013EC002FFC12233B6101237B610023BB61022391
:1013FC00FB6107F1100319460C4801F021FC002297
:10140C000221062001F0D1F9062001F0EAF90022B0
:10141C000221172001F0C9F9172001F0E2F900BFF1
:10142C002037BD4680BD00BF0010024000080140BF
:10143C000000111080B500AF012001F09DFD00BF30
:10144C0080BD80B500AF202001F096FD00BF80BDAF
:10145C0080B400AF72B600BFFEE7000080B485B068
:10146C0000AF154B9B69144A43F001039361124B77
:10147C009B6903F00103BB60BB680F4BDB690E4A31
:10148C0043F08053D3610C4BDB6903F080537B60DA
:10149C007B680A4B5B68FB60FB6823F0E063FB60D6
:1014AC00FB6843F00073FB60044AFB68536000BFA9
:1014BC001437BD4680BC704700100240000001404C
:1014CC0080B588B000AF786007F1100300221A6075
:1014DC005A609A60DA607B681B68184A934229D17B
:1014EC00174B9B69164A43F400739361144B9B6929
:1014FC0003F40073FB60FB68114B9B69104A43F0CB
:10150C00040393610E4B9B6903F00403BB60BB683F
:10151C00C0233B6103237B6107F110031946094883
:10152C0001F08EFB00220021122001F03EF9122066
:10153C0001F057F900BF2037BD4680BD00240140A3
:10154C00001002400008014080B588B000AF786000
:10155C0007F1100300221A605A609A60DA607B6807
:10156C001B68154A934223D1144B9B69134A43F0D1
:10157C0008039361114B9B6903F00803FB60FB6844
:10158C00C0233B6112237B610323FB6107F1100332
:10159C0019460B4801F054FB084BDB69074A43F42E
:1015AC000013D361054BDB6903F40013BB60BB680C
:1015BC0000BF2037BD4680BD0054004000100240E3
:1015CC00000C014080B584B000AF78607B681B686C
:1015DC002D4A93420CD12D4B9B692C4A43F400634A
:1015EC0093612A4B9B6903F40063FB60FB6846E044
:1015FC007B681B68264A934241D1244BDB69234A02
:10160C0043F00203D361214BDB6903F00203BB609F
:10161C00BB68204B204A1A601E4B10225A601D4B8F
:10162C0000229A601B4B8022DA601A4B4FF48072B6
:10163C001A61184B4FF480625A61164B00229A6162
:10164C00144B0022DA61134801F0E6F80346002B34
:10165C0001D0FFF7FDFE7B680E4A5A620D4A7B688B
:10166C0053627B680B4A9A630A4A7B685362002276
:10167C0000211D2001F099F81D2001F0B2F800BFE7
:10168C001037BD4680BD00BF002C01400010024049
:10169C0000040040980100206C00024080B58AB024
:1016AC0000AF786007F1140300221A605A609A6048
:1016BC00DA607B681B68284A934219D1274B9B69D7
:1016CC00264A43F004039361244B9B6903F0040303
:1016DC003B613B694FF470637B610223BB61022366
:1016EC003B6207F1140319461D4801F0A9FA2EE0DC
:1016FC007B681B681B4A934229D1184B9B69174A7C
:10170C0043F008039361154B9B6903F00803FB60DE
:10171C00FB6810237B610223BB6102233B6207F150
:10172C0014031946104801F08BFA104B5B687B626E
:10173C007B6A23F440637B627B6A43F0E0637B62E9
:10174C007B6A43F400637B62084A7B6A536000BF88
:10175C002837BD4680BD00BF002C01400010024060
:10176C000008014000040040000C01400000014052
:10177C0080B588B000AF786007F1100300221A60C2
:10178C005A609A60DA607B681B681F4A934237D1B3
:10179C001E4BDB691D4A43F40033D3611B4BDB69E1
:1017AC0003F40033FB60FB68184B9B69174A43F04A
:1017BC0004039361154B9B6903F00403BB60BB6886
:1017CC0004233B6102237B610323FB6107F11003BC
:1017DC0019460F4801F034FA08233B6100237B6162
:1017EC000023BB6107F110031946094801F028FAE0
:1017FC0000220021262000F0D8FF262000F0F1FF67
:10180C0000BF2037BD4680BD0044004000100240A0
:10181C000008014080B400AFFEE780B400AFFEE7E3
:10182C0080B400AFFEE780B400AFFEE780B400AF39
:10183C00FEE780B400AF00BFBD4680BC704780B4EB
:10184C0000AF00BFBD4680BC704780B400AF00BF86
:10185C00BD4680BC704780B500AF00F05DF900BF9D
:10186C0080BD000080B500AF024801F0E3F800BF76
:10187C0080BD00BF9801002080B500AF024800F089
:10188C004FFC00BF80BD00BF8400002080B500AFBE
:10189C00024803F015F800BF80BD00BF50010020C6
:1018AC0080B500AF024803F08FFE00BF80BD00BFC3
:1018BC00DC01002080B400AF01231846BD4680BC7B
:1018CC00704780B582B000AF7860396004F03EFE9E
:1018DC00034616221A604FF0FF3318460837BD46F0
:1018EC0080BD80B582B000AF78604FF0FF31786872
:1018FC00FFF7E7FFFEE780B586B000AFF860B96090
:10190C007A6000237B610AE0AFF300800146BB687C
:10191C005A1CBA60CAB21A707B6901337B617A694E
:10192C007B689A42F0DB7B6818461837BD4680BD51
:10193C0080B586B000AFF860B9607A6000237B6137
:10194C0009E0BB685A1CBA601B781846AFF30080DC
:10195C007B6901337B617A697B689A42F1DB7B6836
:10196C0018461837BD4680BD80B483B000AF786090
:10197C004FF0FF3318460C37BD4680BC704780B41F
:10198C0083B000AF786039603B684FF400525A6006
:10199C00002318460C37BD4680BC704780B483B01A
:1019AC0000AF7860012318460C37BD4680BC7047E9
:1019BC0080B485B000AFF860B9607A600023184637
:1019CC001437BD4680BC704780B586B000AF7860D8
:1019DC00144A154BD31A7B617B693B61134B1B6813
:1019EC00002B02D1114B124A1A60104B1A687B68FB
:1019FC0013443A699A4207D204F0A8FD03460C221C
:101A0C001A604FF0FF3309E0084B1B68FB60074B73
:101A1C001A687B681344054A1360FB68184618372C
:101A2C00BD4680BD00500020000400001C040020B6
:101A3C007005002080B400AF00BFBD4680BC70476D
:101A4C00FFF7F8FF0B480C490C4A002302E0D4586E
:101A5C00C4500433C4188C42F9D3094A094C0023EE
:101A6C0001E013600432A242FBD304F075FDFFF7D2
:101A7C008BF970470000002068000020C880000827
:101A8C006800002070050020FEE7000080B500AF64
:101A9C00084B1B68074A43F010031360032000F047
:101AAC0079FE0F2000F008F8FFF7D8FC0023184649
:101ABC0080BD00BF0020024080B582B000AF7860CE
:101ACC00124B1A68124B1B7819464FF47A73B3FBFE
:101ADC00F1F3B2FBF3F3184600F091FE0346002B32
:101AEC0001D001230EE07B680F2B0AD80022796805
:101AFC004FF0FF3000F059FE064A7B68136000235C
:101B0C0000E0012318460837BD4680BD00000020C8
:101B1C00080000200400002080B400AF054B1B78A7
:101B2C001A46054B1B681344034A136000BFBD469D
:101B3C0080BC7047080000202004002080B400AF57
:101B4C00024B1B681846BD4680BC70472004002021
:101B5C0080B584B000AF7860FFF7F0FFB8607B68A9
:101B6C00FB60FB68B3F1FF3F05D00A4B1B781A46AC
:101B7C00FB681344FB6000BFFFF7E0FF0246BB6845
:101B8C00D31AFA689A42F7D800BF00BF1037BD4687
:101B9C0080BD00BF0800002080B586B000AF786023
:101BAC000023FB7500233B610023BB600023FB601B
:101BBC007B68002B01D10123BEE07B689B68002B66
:101BCC007B689B6A002B09D17B680022DA627B68F8
:101BDC00002283F824207868FFF772FC786800F004
:101BEC00C3FC0346FB757B689B6A03F01003002B58
:101BFC0040F09980FB7D002B40F095807B689B6AC0
:101C0C0023F4885323F0020343F002027B689A62A8
:101C1C007B685A687B68DB691A437B681B7B5B00BB
:101C2C001343BA681343BB607B689B68B3F5807F32
:101C3C0003D07B689B68012B02D14FF4807300E0CA
:101C4C0000233A6913433B617B681B7D012B19D13F
:101C5C007B681B7B002B09D17B689B69013B5A037A
:101C6C003B69134343F400633B610BE07B689B6A65
:101C7C0043F020027B689A627B68DB6A43F00102C6
:101C8C007B68DA627B681B685B6823F469417B685C
:101C9C001B683A690A435A607B681B689A68284B30
:101CAC0013407A681268B9680B4393607B689B6831
:101CBC00B3F5807F03D07B689B68012B04D17B68D4
:101CCC001B69013B1B05FB607B681B68DB6A23F40B
:101CDC0070017B681B68FA680A43DA627B681B68D0
:101CEC009A68184B1340BA689A420BD17B68002251
:101CFC00DA627B689B6A23F0030343F001027B6882
:101D0C009A6218E07B689B6A23F0120343F010027E
:101D1C007B689A627B68DB6A43F001027B68DA625B
:101D2C000123FB7507E07B689B6A43F010027B681C
:101D3C009A620123FB75FB7D18461837BD4680BDA2
:101D4C00FDF7E1FFFE0E1FFF80B584B000AF786099
:101D5C000023FB737B6893F82430012B01D1022301
:101D6C0098E07B68012283F82420786800F0A2FBBD
:101D7C000346FB73FB7B002B40F087807B689B6AE0
:101D8C0023F4407323F0010343F480727B689A625E
:101D9C007B681B68414A934205D1414B5B6803F455
:101DAC007023002B15D17B689B6A23F480127B680F
:101DBC009A627B681B685B6803F48063002B26D0F7
:101DCC007B689B6A23F4405343F480527B689A628D
:101DDC001DE07B689B6A43F480127B689A627B6887
:101DEC001B682F4A934204D07B681B682B4A934292
:101DFC000DD12B4B5B6803F48063002B07D07B6801
:101E0C009B6A23F4405343F480527B689A627B684C
:101E1C009B6A03F48053002B06D07B68DB6A23F0AB
:101E2C0006027B68DA6202E07B680022DA627B6879
:101E3C00002283F824207B681B686FF002021A6072
:101E4C007B681B689B6803F46023B3F5602F13D188
:101E5C007B681B68114A934205D1114B5B6803F4F4
:101E6C007023002B08D17B681B689A687B681B6801
:101E7C0042F4A0029A600CE07B681B689A687B684D
:101E8C001B6842F480129A6003E07B68002283F89E
:101E9C002420FB7B18461037BD4680BD002801402E
:101EAC000024014080B584B000AF78600023FB7340
:101EBC007B6893F82430012B01D102231AE07B6854
:101ECC00012283F82420786800F04EFB0346FB7354
:101EDC00FB7B002B09D17B689B6A23F4885323F08E
:101EEC00010343F001027B689A627B68002283F84D
:101EFC002420FB7B18461037BD4680BD90B587B0BB
:101F0C0000AF7860396000237B610023FB60002305
:101F1C003B61FFF713FE78617B681B689B6803F4D9
:101F2C008073002B0BD07B689B6A43F020027B688C
:101F3C009A627B68002283F824200123D3E07B681B
:101F4C001B685B6803F48073002B31D17B681B68C2
:101F5C00DB6A03F47003002B2AD121E03B68B3F158
:101F6C00FF3F1DD03B68002B07D0FFF7E7FD024673
:101F7C007B69D31A3A689A4212D27B681B681B6839
:101F8C0003F00203002B0BD17B689B6A43F0040225
:101F9C007B689A627B68002283F824200323A2E0EA
:101FAC007B681B681B6803F00203002BD6D070E023
:101FBC004F4B1C68022002F059F90346B4FBF3F2B4
:101FCC007B681B6819694B4B0B40002B18D17B6845
:101FDC001B68D968484B0B40002B11D17B681B68E0
:101FEC001969464B0B40002B08D17B681B68D968DC
:101FFC00434B0B40002B01D1142320E029231EE07E
:10200C007B681B6819693D4B0B40002B06D17B6824
:10201C001B68D9683A4B0B40002B0DD07B681B68B2
:10202C001969384B0B40002B08D17B681B68D968A9
:10203C00344B0B40002B01D1542300E0FC2302FB5A
:10204C0003F33B6121E03B68B3F1FF3F1AD03B68DF
:10205C00002B07D0FFF772FD02467B69D31A3A6852
:10206C009A420FD2FB683A699A420BD97B689B6AF9
:10207C0043F004027B689A627B68002283F8242078
:10208C00032330E0FB680133FB60FB683A699A423A
:10209C00D9D87B681B686FF012021A607B689B6A48
:1020AC0043F400727B689A627B681B689B6803F43C
:1020BC006023B3F5602F15D17B681B7B002B11D1EE
:1020CC007B689B6A23F480727B689A627B689B6A4C
:1020DC0003F48053002B05D17B689B6A43F001020B
:1020EC007B689A62002318461C37BD4690BD00BF22
:1020FC000000002024499224244992009224491281
:10210C00922449004992240080B483B000AF7860D7
:10211C007B681B68DB6C18460C37BD4680BC70476F
:10212C0080B584B000AF78607B681B681B68FB606F
:10213C007B681B685B68BB60BB6803F02003002BEB
:10214C003ED0FB6803F00203002B39D07B689B6AFE
:10215C0003F01003002B05D17B689B6A43F40072DB
:10216C007B689A627B681B689B6803F46023B3F5F9
:10217C00602F1DD17B681B7B002B19D17B681B68E2
:10218C005A687B681B6822F020025A607B689B6A45
:10219C0023F480727B689A627B689B6A03F4805399
:1021AC00002B05D17B689B6A43F001027B689A6225
:1021BC00786800F074F87B681B686FF012021A6084
:1021CC00BB6803F08003002B4DD0FB6803F00403C5
:1021DC00002B48D07B689B6A03F01003002B05D1C1
:1021EC007B689B6A43F400527B689A627B681B682D
:1021FC009B6803F4E043B3F5E04F12D07B681B6897
:10220C005B6803F48063002B25D17B681B689B689B
:10221C0003F46023B3F5602F1DD17B681B7B002B6F
:10222C0019D17B681B685A687B681B6822F0800296
:10223C005A607B689B6A23F480527B689A627B6845
:10224C009B6A03F48073002B05D17B689B6A43F077
:10225C0001027B689A62786800F0C7F97B681B689A
:10226C006FF00C021A60BB6803F04003002B12D015
:10227C00FB6803F00103002B0DD07B689B6A43F4D1
:10228C0080327B689A62786800F012F87B681B6871
:10229C006FF001021A6000BF1037BD4680BD80B4DC
:1022AC0083B000AF786000BF0C37BD4680BC704770
:1022BC0080B483B000AF786000BF0C37BD4680BCE3
:1022CC007047000080B485B000AF7860396000239F
:1022DC00FB730023BB607B6893F82430012B01D186
:1022EC000223DCE07B68012283F824203B685B68D6
:1022FC00062B1CD87B681B68596B3B685A681346C5
:10230C009B001344053B1F2202FA03F3DB431940E5
:10231C003B6818683B685A6813469B001344053B9E
:10232C0000FA03F27B681B680A435A633CE03B6883
:10233C005B680C2B1CD87B681B68196B3B685A6854
:10234C0013469B001344233B1F2202FA03F3DB4387
:10235C0019403B6818683B685A6813469B00134445
:10236C00233B00FA03F27B681B680A431A631BE0E9
:10237C007B681B68D96A3B685A6813469B001344F8
:10238C00413B1F2202FA03F3DB4319403B681868F8
:10239C003B685A6813469B001344413B00FA03F216
:1023AC007B681B680A43DA623B681B68092B1CD9E3
:1023BC007B681B68D9683B681A6813465B0013443A
:1023CC001E3B072202FA03F3DB4319403B68986873
:1023DC003B681A6813465B0013441E3B00FA03F279
:1023EC007B681B680A43DA6019E07B681B68196913
:1023FC003B681A6813465B001344072202FA03F386
:10240C00DB4319403B6898683B681A6813465B00CD
:10241C00134400FA03F27B681B680A431A613B6899
:10242C001B68102B03D03B681B68112B32D17B68C7
:10243C001B681D4A934225D17B681B689B6803F47B
:10244C000003002B26D17B681B689A687B681B688D
:10245C0042F400029A603B681B68102B1AD1134B94
:10246C001B68134AA2FB03239A0C13469B001344CC
:10247C005B00BB6002E0BB68013BBB60BB68002B30
:10248C00F9D107E07B689B6A43F020027B689A6273
:10249C000123FB737B68002283F82420FB7B184606
:1024AC001437BD4680BC704700240140000000205A
:1024BC0083DE1B4380B584B000AF78600023FB60E3
:1024CC000023BB607B681B689B6803F00103012B36
:1024DC0040D07B681B689A687B681B6842F00102DD
:1024EC009A601F4B1B681F4AA2FB03239B0CBB600B
:1024FC0002E0BB68013BBB60BB68002BF9D1FFF766
:10250C001DFBF8601FE0FFF719FB0246FB68D31AAE
:10251C00022B18D97B681B689B6803F00103012B05
:10252C0011D07B689B6A43F010027B689A627B68CF
:10253C00DB6A43F001027B68DA627B68002283F875
:10254C002420012307E07B681B689B6803F00103D0
:10255C00012BD8D1002318461037BD4680BD00BFD3
:10256C000000002083DE1B4380B584B000AF786090
:10257C000023FB607B681B689B6803F00103012B45
:10258C002ED17B681B689A687B681B6822F001025D
:10259C009A60FFF7D3FAF8601BE0FFF7CFFA024618
:1025AC00FB68D31A022B14D97B681B689B6803F059
:1025BC000103012B0DD17B689B6A43F010027B68F1
:1025CC009A627B68DB6A43F001027B68DA62012362
:1025DC0007E07B681B689B6803F00103012BDCD0D0
:1025EC00002318461037BD4680BD80B483B000AFC1
:1025FC00786000BF0C37BD4680BC704780B485B096
:10260C0000AF78607B6803F00703FB600C4BDB6862
:10261C00BB60BA684FF6FF031340BB60FB681A023D
:10262C00BB68134343F0BF6343F40033BB60044AFD
:10263C00BB68D36000BF1437BD4680BC704700BF79
:10264C0000ED00E080B400AF044BDB681B0A03F024
:10265C0007031846BD4680BC704700BF00ED00E084
:10266C0080B483B000AF0346FB7197F90730002BA1
:10267C000BDBFB7903F01F02064997F907305B0966
:10268C00012000FA02F241F8232000BF0C37BD46AE
:10269C0080BC704700E100E080B483B000AF03461B
:1026AC003960FB7197F90730002B0ADB3B68DAB213
:1026BC000C4997F907301201D2B20B4483F800236E
:1026CC000AE03B68DAB20849FB7903F00F03043BDC
:1026DC001201D2B20B441A7600BF0C37BD4680BC37
:1026EC00704700BF00E100E000ED00E080B489B06D
:1026FC0000AFF860B9607A60FB6803F00703FB6118
:10270C00FB69C3F10703042B28BF0423BB61FB69DE
:10271C000433062B02D9FB69033B00E000237B61E9
:10272C004FF0FF32BB6902FA03F3DA43BB681A407D
:10273C007B699A404FF0FF317B6901FA03F3D9436F
:10274C007B680B40134318462437BD4680BC70474A
:10275C0080B582B000AF78607B68013BB3F1807FBD
:10276C0001D301230FE00A4A7B68013B53600F2120
:10277C004FF0FF30FFF790FF054B00229A60044B9F
:10278C0007221A60002318460837BD4680BD00BFDB
:10279C0010E000E080B582B000AF78607868FFF799
:1027AC002DFF00BF0837BD4680BD80B586B000AF99
:1027BC000346B9607A60FB7300237B61FFF742FF2D
:1027CC0078617A68B9687869FFF790FF024697F9E3
:1027DC000F3011461846FFF75FFF00BF1837BD4694
:1027EC0080BD80B582B000AF0346FB7197F907300E
:1027FC001846FFF735FF00BF0837BD4680BD80B5D2
:10280C0082B000AF78607868FFF7A2FF03461846E5
:10281C000837BD4680BD000080B485B000AF78603D
:10282C000023FB607B68002B01D1012343E07B6814
:10283C001B681A46224B1344224AA2FB03231B0992
:10284C009A007B681A647B681F4ADA637B680222F1
:10285C0083F821207B681B681B68FB60FB6823F4F2
:10286C007F5323F03003FB607B685A687B689B685E
:10287C001A437B68DB681A437B681B691A437B68C5
:10288C005B691A437B689B691A437B68DB6913435A
:10289C00FA681343FB607B681B68FA681A607B68F4
:1028AC0000229A637B68012283F821207B68002236
:1028BC0083F82020002318461437BD4680BC70478F
:1028CC00F8FFFDBFCDCCCCCC0000024080B485B06D
:1028DC0000AF78600023FB737B6893F82130DBB288
:1028EC00022B08D07B6804229A637B68002283F851
:1028FC002020012320E07B681B681A687B681B681A
:10290C0022F00E021A607B681B681A687B681B68D1
:10291C0022F001021A607B681A6C7B68DB6B012168
:10292C0001FA02F25A607B68012283F821207B684D
:10293C00002283F82020FB7B18461437BD4680BC50
:10294C007047000080B584B000AF78600023FB7343
:10295C007B6893F82130DBB2022B05D07B68042214
:10296C009A630123FB7351E07B681B681A687B68D0
:10297C001B6822F00E021A607B681B681A687B6861
:10298C001B6822F001021A607B681B68224A934282
:10299C0029D07B681B68214A934222D07B681B6834
:1029AC001F4A93421AD07B681B681E4A934212D06E
:1029BC007B681B681C4A93420AD07B681B681B4AC5
:1029CC00934202D14FF480130EE04FF080730BE072
:1029DC004FF4803308E04FF4805305E04FF48073DC
:1029EC0002E0102300E00123114A53607B680122AE
:1029FC0083F821207B68002283F820207B685B6BA6
:102A0C00002B03D07B685B6B78689847FB7B184680
:102A1C001037BD4680BD00BF080002401C000240BC
:102A2C003000024044000240580002406C0002405A
:102A3C000000024080B584B000AF78607B68DB6B2F
:102A4C001B68FB607B681B681B68BB607B681B6C2E
:102A5C0004229A40FB681340002B4FD0BB6803F054
:102A6C000403002B4AD07B681B681B6803F020030F
:102A7C00002B07D17B681B681A687B681B6822F0E7
:102A8C0004021A607B681B68664A934229D07B68F3
:102A9C001B68654A934222D07B681B68634A934249
:102AAC001AD07B681B68624A934212D07B681B6801
:102ABC00604A93420AD07B681B685F4A934202D1FA
:102ACC004FF480030EE04FF080630BE04FF4802353
:102ADC0008E04FF4804305E04FF4806302E04023AC
:102AEC0000E00423554A53607B68DB6A002B00F03E
:102AFC0094807B68DB6A786898478EE07B681B6CF7
:102B0C0002229A40FB681340002B56D0BB6803F09E
:102B1C000203002B51D07B681B681B6803F0200359
:102B2C00002B0BD17B681B681A687B681B6822F032
:102B3C000A021A607B68012283F821207B681B68DB
:102B4C00384A934229D07B681B68374A934222D07B
:102B5C007B681B68354A93421AD07B681B68344AE1
:102B6C00934212D07B681B68324A93420AD07B682E
:102B7C001B68314A934202D14FF400130EE04FF020
:102B8C0000730BE04FF4003308E04FF4005305E002
:102B9C004FF4007302E0202300E00223274A536025
:102BAC007B68002283F820207B689B6A002B34D042
:102BBC007B689B6A786898472FE07B681B6C0822BF
:102BCC009A40FB681340002B28D0BB6803F0080325
:102BDC00002B23D07B681B681A687B681B6822F06B
:102BEC000E021A607B681A6C7B68DB6B012101FAA0
:102BFC0002F25A607B6801229A637B68012283F897
:102C0C0021207B68002283F820207B681B6B002B23
:102C1C0004D07B681B6B7868984700BF00BF1037E7
:102C2C00BD4680BD080002401C000240300002403E
:102C3C0044000240580002406C0002400000024078
:102C4C0080B48BB000AF7860396000237B620023C6
:102C5C003B6269E101227B6A02FA03F3FB613B6888
:102C6C001B68FA691340BB61BA69FB699A4240F070
:102C7C0058813B685B689A4A93425ED0984A93426B
:102C8C0075D8984A934258D0964A93426FD8964A30
:102C9C00934252D0944A934269D8944A93424CD06E
:102CAC00924A934263D8924A934246D0904A9342B6
:102CBC005DD8122B2AD8122B59D801A252F823F026
:102CCC00472D0008212D0008332D0008752D000814
:102CDC007B2D00087B2D00087B2D00087B2D000828
:102CEC007B2D00087B2D00087B2D00087B2D000818
:102CFC007B2D00087B2D00087B2D00087B2D000808
:102D0C007B2D0008292D00083D2D0008794A93429F
:102D1C0013D02CE03B68DB683B6229E03B68DB6846
:102D2C0004333B6224E03B68DB6808333B621FE002
:102D3C003B68DB680C333B621AE03B689B68002BFA
:102D4C0002D104233B6213E03B689B68012B05D145
:102D5C0008233B627B68FA691A6109E008233B622D
:102D6C007B68FA695A6103E000233B6200E000BF14
:102D7C00BB69FF2B01D87B6801E07B6804337B6166
:102D8C00BB69FF2B02D87B6A9B0002E07B6A083B85
:102D9C009B003B617B691A680F213B6901FA03F3C5
:102DAC00DB431A40396A3B6901FA03F31A437B6926
:102DBC001A603B685B6803F08053002B00F0B18015
:102DCC004D4B9B694C4A43F0010393614A4B9B6901
:102DDC0003F00103BB60BB68484A7B6A9B08023363
:102DEC0052F82330FB607B6A03F003039B000F2235
:102DFC0002FA03F3DB43FA681340FB607B68404A3A
:102E0C00934213D07B683F4A93420DD07B683E4A75
:102E1C00934207D07B683D4A934201D1032306E0DD
:102E2C00042304E0022302E0012300E000237A6A79
:102E3C0002F0030292009340FA681343FB602F499F
:102E4C007B6A9B080233FA6841F823203B685B6875
:102E5C0003F48013002B06D02D4B9A682C49BB69C8
:102E6C0013438B6006E02A4B9A68BB69DB43284905
:102E7C0013408B603B685B6803F40013002B06D097
:102E8C00234BDA682249BB691343CB6006E0204B25
:102E9C00DA68BB69DB431E491340CB603B685B6857
:102EAC0003F40033002B06D0194B5A681849BB6940
:102EBC0013434B6006E0164B5A68BB69DB4314495D
:102ECC0013404B603B685B6803F48033002B21D0CC
:102EDC000F4B1A680E49BB6913430B6021E000BF0E
:102EEC0000003210000031100000221000002110F0
:102EFC0000001210000011100010024000000140F0
:102F0C0000080140000C0140001001400014014079
:102F1C00000401400B4B1A68BB69DB4309491340A1
:102F2C000B607B6A01337B623B681A687B6A22FA0E
:102F3C0003F3002B7FF48EAE00BF00BF2C37BD46D1
:102F4C0080BC70470004014080B483B000AF78604F
:102F5C000B467B8013467B707B78002B03D07A88E2
:102F6C007B681A6103E07B881A047B681A6100BFD6
:102F7C000C37BD4680BC704780B582B000AF0346AD
:102F8C00FB80084B5A69FB881340002B06D0054A7E
:102F9C00FB885361FB881846FDF720FA00BF083701
:102FAC00BD4680BD0004014080B584B000AF7860A0
:102FBC007B68002B01D101232BE17B6893F83D301A
:102FCC00DBB2002B06D17B68002283F83C207868AA
:102FDC00FEF7BAFA7B68242283F83D207B681B68D5
:102FEC001A687B681B6822F001021A607B681B68F8
:102FFC001A687B681B6842F400421A607B681B6885
:10300C001A687B681B6822F400421A6001F032F8DF
:10301C00F8607B685B68814A934207D8FB68804AFA
:10302C00934294BF01230023DBB206E0FB687D4A88
:10303C00934294BF01230023DBB2002B01D0012368
:10304C00E7E0FB68784AA2FB03239B0CBB607B6820
:10305C001B685B6823F03F017B681B68BA680A43F6
:10306C005A607B681B681B6A23F03F017B685B68B6
:10307C006A4A934202D8BB68013309E0BB684FF43B
:10308C00967202FB03F3694AA2FB03239B090133EB
:10309C007A6812680B4313627B681B68DB6923F444
:1030AC004F4222F0FF027B685B685C498B4219D867
:1030BC00FB68591E7B685B685B00B1FBF3F3591C22
:1030CC0040F6FC730B40002B0AD0FB68591E7B6842
:1030DC005B685B00B1FBF3F30133C3F30B0351E00B
:1030EC0004234FE07B689B68002B11D1FB68581EB2
:1030FC007B6859680B465B000B44B0FBF3F3013360
:10310C00C3F30B03002B0CBF01230023DBB212E033
:10311C00FB68581E7B6859680B469B000B44990052
:10312C000B44B0FBF3F30133C3F30B03002B0CBFC5
:10313C0001230023DBB2002B01D0012322E07B68AA
:10314C009B68002B0ED1FB68581E7B6859680B4698
:10315C005B000B44B0FBF3F30133C3F30B0343F4F9
:10316C0000430FE0FB68581E7B6859680B469B00B8
:10317C000B4499000B44B0FBF3F30133C3F30B0383
:10318C0043F44043796809681343CB617B681B683F
:10319C001B6823F0C0017B68DA697B681B6A1A43E1
:1031AC007B681B680A431A607B681B689B6823F466
:1031BC00034323F0FF037A6811697A68D2681143DC
:1031CC007A6812680B4393607B681B68DB6823F09A
:1031DC00FF017B685A697B689B691A437B681B6893
:1031EC000A43DA607B681B681A687B681B6842F0CC
:1031FC0001021A607B6800221A647B68202283F823
:10320C003D207B6800221A637B68002283F83E20F5
:10321C00002318461037BD4680BD00BFA0860100B4
:10322C007F841E00FF083D0083DE1B43D34D6210DC
:10323C0080B588B002AFF8607A601A460B467B8185
:10324C0013463B81FEF77AFC7861FB6893F83D30BE
:10325C00DBB2202B40F0E0807B6900931923012224
:10326C007049F86800F064F90346002B01D0022382
:10327C00D3E0FB6893F83C30012B01D10223CCE066
:10328C00FB68012283F83C20FB681B681B6803F079
:10329C000103012B07D0FB681B681A68FB681B68CD
:1032AC0042F001021A60FB681B681A68FB681B6815
:1032BC0022F400621A60FB68212283F83D20FB682F
:1032CC00102283F83E20FB6800221A64FB687A689F
:1032DC005A62FB683A895A85FB685B8D9AB2FB6827
:1032EC001A85FB68504ADA6279897B693A6AF86810
:1032FC0000F09CF80346002B01D001238DE0002345
:10330C003B61FB681B685B693B61FB681B689B69E5
:10331C003B613B6966E07A69396AF86800F022FA29
:10332C000346002B0DD0FB681B6C042B07D1FB68EC
:10333C001B681A68FB681B6842F400721A60012350
:10334C006BE0FB685B6A1A78FB681B681A61FB68A8
:10335C005B6A5A1CFB685A62FB685B8D9BB2013B33
:10336C009AB2FB685A85FB681B8D013B9AB2FB68CD
:10337C001A85FB681B685B6903F00403042B1BD1E3
:10338C00FB681B8D002B17D0FB685B6A1A78FB68F7
:10339C001B681A61FB685B6A5A1CFB685A62FB6803
:1033AC005B8D9BB2013B9AB2FB685A85FB681B8D07
:1033BC00013B9AB2FB681A857A69396AF86800F0A1
:1033CC0019FA0346002B0DD0FB681B6C042B07D19C
:1033DC00FB681B681A68FB681B6842F400721A6071
:1033EC0001231AE0FB681B8D002B94D1FB681B6832
:1033FC001A68FB681B6842F400721A60FB68202292
:10340C0083F83D20FB68002283F83E20FB680022F5
:10341C0083F83C20002300E0022318461837BD46F1
:10342C0080BD00BF020010000000FFFF80B588B017
:10343C0002AFF8607A603B600B467B81FB68DB6A0D
:10344C007B617B69082B06D07B69012B03D07B69E0
:10345C0013F5803F08D1FB681B681A68FB681B6872
:10346C0042F480721A600BE0FB681B6B122B07D1C5
:10347C00FB681B681A68FB681B6842F480721A6050
:10348C003B6800937B6800224FF00111F86800F054
:10349C004FF80346002B0DD0FB681B681B6803F428
:1034AC008073B3F5807F03D1FB684FF400721A640C
:1034BC00032335E0FB681B69B3F5804F08D17B898A
:1034CC00DBB21A46FB681B6802F0FE021A611BE0B5
:1034DC007B89DB11DBB203F00603DBB263F00F0375
:1034EC00DAB2FB681B681A613B687A680E49F868A7
:1034FC0000F098F80346002B01D0012310E07B89E3
:10350C00DAB2FB681B681A613B687A680749F8688D
:10351C0000F088F80346002B01D0012300E00023C3
:10352C0018461837BD4680BD080001000200010096
:10353C0080B584B000AFF860B9603B601346FB7196
:10354C0048E03B68B3F1FF3F44D0FEF7F7FA024680
:10355C00BB69D31A3A689A4202D33B68002B39D123
:10356C00BB681B0CDBB2012B0DD1FB681B685B69C4
:10357C00DA43BB6813409BB2002B0CBF0123002322
:10358C00DBB21A460CE0FB681B689B69DA43BB682C
:10359C0013409BB2002B0CBF01230023DBB21A4655
:1035AC00FB799A4216D1FB6800221A63FB68202231
:1035BC0083F83D20FB68002283F83E20FB681B6CDF
:1035CC0043F02002FB681A64FB68002283F83C205D
:1035DC00012323E0BB681B0CDBB2012B0DD1FB6874
:1035EC001B685B69DA43BB6813409BB2002B0CBFB2
:1035FC0001230023DBB21A460CE0FB681B689B69B5
:10360C00DA43BB6813409BB2002B0CBF0123002391
:10361C00DBB21A46FB799A4293D000231846103736
:10362C00BD4680BD80B584B000AFF860B9607A60EB
:10363C003B6071E0FB681B685B6903F48063B3F566
:10364C00806F23D1FB681B681A68FB681B6842F407
:10365C0000721A60FB681B686FF480625A61FB6829
:10366C0000221A63FB68202283F83D20FB680022AD
:10367C0083F83E20FB681B6C43F00402FB681A6461
:10368C00FB68002283F83C20012367E07B68B3F1E0
:10369C00FF3F41D0FEF752FA02463B68D31A7A68D4
:1036AC009A4202D37B68002B36D1BB681B0CDBB271
:1036BC00012B0CD1FB681B685B69DA43BB681340B8
:1036CC009BB2002B14BF01230023DBB20BE0FB6881
:1036DC001B689B69DA43BB6813409BB2002B14BF79
:1036EC0001230023DBB2002B16D0FB6800221A63E7
:1036FC00FB68202283F83D20FB68002283F83E20E3
:10370C00FB681B6C43F02002FB681A64FB68002208
:10371C0083F83C20012321E0BB681B0CDBB2012B9E
:10372C000CD1FB681B685B69DA43BB6813409BB226
:10373C00002B14BF01230023DBB20BE0FB681B68DA
:10374C009B69DA43BB6813409BB2002B14BF012367
:10375C000023DBB2002B7FF46DAF0023184610372B
:10376C00BD4680BD80B584B000AFF860B9607A60AA
:10377C0034E0F86800F086F80346002B01D00123F2
:10378C0034E0BB68B3F1FF3F28D0FEF7D7F902460F
:10379C007B68D31ABA689A4202D3BB68002B1DD13E
:1037AC00FB681B685B6903F08003802B16D0FB68F9
:1037BC0000221A63FB68202283F83D20FB6800225C
:1037CC0083F83E20FB681B6C43F02002FB681A64F4
:1037DC00FB68002283F83C20012307E0FB681B6890
:1037EC005B6903F08003802BC3D10023184610378C
:1037FC00BD4680BD80B584B000AFF860B9607A601A
:10380C0034E0F86800F03EF80346002B01D00123A9
:10381C0034E0BB68B3F1FF3F28D0FEF78FF90246C6
:10382C007B68D31ABA689A4202D3BB68002B1DD1AD
:10383C00FB681B685B6903F00403042B16D0FB6860
:10384C0000221A63FB68202283F83D20FB680022CB
:10385C0083F83E20FB681B6C43F02002FB681A6463
:10386C00FB68002283F83C20012307E0FB681B68FF
:10387C005B6903F00403042BC3D1002318461037F3
:10388C00BD4680BD80B483B000AF78607B681B6898
:10389C005B6903F48063B3F5806F1BD17B681B6895
:1038AC006FF480625A617B6800221A637B68202265
:1038BC0083F83D207B68002283F83E207B681B6CDC
:1038CC0043F004027B681A647B68002283F83C2076
:1038DC00012300E0002318460C37BD4680BC70471E
:1038EC0080B586B000AF78607B68002B01D10123D6
:1038FC0072E27B681B6803F00103002B00F08780E9
:10390C00924B5B6803F00C03042B0CD08F4B5B6861
:10391C0003F00C03082B12D18C4B5B6803F480333F
:10392C00B3F5803F0BD1894B1B6803F40033002B9C
:10393C006CD07B685B68002B68D101234CE27B6800
:10394C005B68B3F5803F06D1804B1B687F4A43F41C
:10395C00803313602EE07B685B68002B0CD17B4BB3
:10396C001B687A4A23F480331360784B1B68774AC0
:10397C0023F4802313601DE07B685B68B3F5A02FF4
:10398C000CD1724B1B68714A43F4802313606F4B4C
:10399C001B686E4A43F4803313600BE06B4B1B685F
:1039AC006A4A23F480331360684B1B68674A23F41C
:1039BC00802313607B685B68002B13D0FEF7BEF886
:1039CC00386108E0FEF7BAF802463B69D31A642B5B
:1039DC0001D9032300E25D4B1B6803F40033002B79
:1039EC00F0D014E0FEF7AAF8386108E0FEF7A6F86C
:1039FC0002463B69D31A642B01D90323ECE1534BE8
:103A0C001B6803F40033002BF0D100E000BF7B688F
:103A1C001B6803F00203002B63D04C4B5B6803F074
:103A2C000C03002B0BD0494B5B6803F00C03082BE9
:103A3C001CD1464B5B6803F48033002B16D1434BEF
:103A4C001B6803F00203002B05D07B681B69012B5C
:103A5C0001D00123C0E13D4B1B6823F0F8027B68C9
:103A6C005B69DB00394913430B603AE07B681B69E7
:103A7C00002B20D0364B01221A60FEF75FF838611C
:103A8C0008E0FEF75BF802463B69D31A022B01D91A
:103A9C000323A1E12D4B1B6803F00203002BF0D094
:103AAC002A4B1B6823F0F8027B685B69DB00274913
:103ABC0013430B6015E0264B00221A60FEF73EF80C
:103ACC00386108E0FEF73AF802463B69D31A022B3C
:103ADC0001D9032380E11D4B1B6803F00203002B6B
:103AEC00F0D17B681B6803F00803002B3AD07B688D
:103AFC009B69002B19D0174B01221A60FEF71EF898
:103B0C00386108E0FEF71AF802463B69D31A022B1B
:103B1C0001D9032360E10D4B5B6A03F00203002B18
:103B2C00F0D0012000F0CEFA1CE00A4B00221A6003
:103B3C00FEF704F838610FE0FEF700F802463B6927
:103B4C00D31A022B08D9032346E100BF0010024010
:103B5C000000424280044242924B5B6A03F0020333
:103B6C00002BE9D17B681B6803F00403002B00F0E9
:103B7C00A6800023FB758B4BDB6903F08053002B75
:103B8C000DD1884BDB69874A43F08053D361854B59
:103B9C00DB6903F08053BB60BB680123FB75824B70
:103BAC001B6803F48073002B18D17F4B1B687E4A73
:103BBC0043F480731360FDF7C1FF386108E0FDF733
:103BCC00BDFF02463B69D31A642B01D9032303E1E1
:103BDC00754B1B6803F48073002BF0D07B68DB689B
:103BEC00012B06D16F4B1B6A6E4A43F00103136223
:103BFC002DE07B68DB68002B0CD16A4B1B6A694A91
:103C0C0023F001031362674B1B6A664A23F004031B
:103C1C0013621CE07B68DB68052B0CD1614B1B6AC3
:103C2C00604A43F0040313625E4B1B6A5D4A43F027
:103C3C00010313620BE05B4B1B6A5A4A23F001032E
:103C4C001362584B1B6A574A23F0040313627B68B8
:103C5C00DB68002B15D0FDF771FF38610AE0FDF72A
:103C6C006DFF02463B69D31A41F28832934201D967
:103C7C000323B1E04B4B1B6A03F00203002BEED085
:103C8C0014E0FDF75BFF38610AE0FDF757FF0246D1
:103C9C003B69D31A41F28832934201D903239BE04A
:103CAC00404B1B6A03F00203002BEED1FB7D012B72
:103CBC0005D13C4BDB693B4A23F08053D3617B68D5
:103CCC00DB69002B00F08780364B5B6803F00C033C
:103CDC00082B61D07B68DB69022B46D1334B002269
:103CEC001A60FDF72BFF386108E0FDF727FF02464D
:103CFC003B69D31A022B01D903236DE0294B1B68B6
:103D0C0003F00073002BF0D17B681B6AB3F5803F86
:103D1C0008D1244B5B6823F400327B689B682149F3
:103D2C0013434B601F4B5B6823F474127B68196A56
:103D3C007B685B6A0B431B4913434B601B4B012293
:103D4C001A60FDF7FBFE386108E0FDF7F7FE02464E
:103D5C003B69D31A022B01D903233DE0114B1B689D
:103D6C0003F00073002BF0D035E0104B00221A60EA
:103D7C00FDF7E4FE386108E0FDF7E0FE02463B6922
:103D8C00D31A022B01D9032326E0064B1B6803F040
:103D9C000073002BF0D11EE07B68DB69012B07D18F
:103DAC00012319E000100240007000406000424204
:103DBC000B4B5B68FB60FB6803F480327B681B6A0F
:103DCC009A4206D1FB6803F470127B685B6A9A42D4
:103DDC0001D0012300E0002318461837BD4680BDF2
:103DEC000010024080B584B000AF786039607B6809
:103DFC00002B01D10123D0E06A4B1B6803F00703B1
:103E0C003A689A4210D9674B1B6823F00702654940
:103E1C003B6813430B60634B1B6803F007033A6862
:103E2C009A4201D00123B8E07B681B6803F00203BF
:103E3C00002B20D07B681B6803F00403002B05D0FB
:103E4C00594B5B68584A43F4E06353607B681B68CA
:103E5C0003F00803002B05D0534B5B68524A43F424
:103E6C0060535360504B5B6823F0F0027B689B6897
:103E7C004D4913434B607B681B6803F00103002B17
:103E8C0040D07B685B68012B07D1474B1B6803F460
:103E9C000033002B15D101237FE07B685B68022B7C
:103EAC0007D1414B1B6803F00073002B09D1012390
:103EBC0073E03D4B1B6803F00203002B01D101237F
:103ECC006BE0394B5B6823F003027B685B68364917
:103EDC0013434B60FDF732FEF8600AE0FDF72EFE4F
:103EEC000246FB68D31A41F28832934201D903236C
:103EFC0053E02D4B5B6803F00C027B685B689B0006
:103F0C009A42EBD1274B1B6803F007033A689A429D
:103F1C0010D2244B1B6823F0070222493B68134341
:103F2C000B60204B1B6803F007033A689A4201D0E0
:103F3C00012332E07B681B6803F00403002B08D0DC
:103F4C00194B5B6823F4E0627B68DB68164913430A
:103F5C004B607B681B6803F00803002B09D0124BE5
:103F6C005B6823F460527B681B69DB000E491343CA
:103F7C004B6000F021F802460B4B5B681B0903F009
:103F8C000F030A49CB5C22FA03F3094A1360094B6D
:103F9C001B681846FDF790FD002318461037BD46E8
:103FAC0080BD00BF0020024000100240847E00084B
:103FBC00000000200400002080B487B000AF002374
:103FCC00FB600023BB6000237B6100237B6000232C
:103FDC003B611E4B5B68FB60FB6803F00C03042B1E
:103FEC0002D0082B03D027E0194B3B6127E0FB687C
:103FFC009B0C03F00F03174AD35C7B60FB6803F444
:10400C008033002B10D0114B5B685B0C03F0010369
:10401C00114AD35CBB607B680D4A03FB02F2BB68A0
:10402C00B2FBF3F37B6104E07B680C4A02FB03F305
:10403C007B617B693B6102E0054B3B6100BF3B69E7
:10404C0018461C37BD4680BC704700BF00100240AC
:10405C0000127A009C7E0008AC7E000800093D002E
:10406C0080B400AF024B1B681846BD4680BC70473D
:10407C000000002080B500AFFFF7F2FF0246054BB1
:10408C005B681B0A03F007030349CB5C22FA03F3BA
:10409C00184680BD00100240947E000880B500AF29
:1040AC00FFF7DEFF0246054B5B68DB0A03F00703F4
:1040BC000349CB5C22FA03F3184680BD0010024082
:1040CC00947E000880B485B000AF78600A4B1B6802
:1040DC000A4AA2FB03235B0A7A6802FB03F3FB6028
:1040EC0000BFFB685A1EFA60002BF9D100BF00BF5D
:1040FC001437BD4680BC704700000020D34D6210C1
:10410C0080B586B000AF786000233B610023FB6074
:10411C007B681B6803F00103002B7DD00023FB752B
:10412C004F4BDB6903F08053002B0DD14C4BDB69FB
:10413C004B4A43F08053D361494BDB6903F0805306
:10414C00BB60BB680123FB75464B1B6803F4807393
:10415C00002B18D1434B1B68424A43F48073136005
:10416C00FDF7ECFC386108E0FDF7E8FC02463B6922
:10417C00D31A642B01D903236DE03A4B1B6803F46B
:10418C008073002BF0D0364B1B6A03F44073FB603A
:10419C00FB68002B2ED07B685B6803F44073FA68D5
:1041AC009A4227D02E4B1B6A23F44073FB602E4B94
:1041BC0001221A602C4B00221A60294AFB681362F8
:1041CC00FB6803F00103002B14D0FDF7B7FC38613A
:1041DC000AE0FDF7B3FC02463B69D31A41F2883280
:1041EC00934201D9032336E01D4B1B6A03F00203F3
:1041FC00002BEED01A4B1B6A23F440727B685B6871
:10420C00174913430B62FB7D012B05D1144BDB6962
:10421C00134A23F08053D3617B681B6803F00203BD
:10422C00002B08D00E4B5B6823F440427B689B68E4
:10423C000B4913434B607B681B6803F01003002B86
:10424C0008D0074B5B6823F480027B68DB68044969
:10425C0013434B60002318461837BD4680BD00BF82
:10426C0000100240007000404004424280B588B00B
:10427C0000AF786000237B610023FB6100233B616E
:10428C000023FB600023BB617B68102B0AD07B688A
:10429C00102B00F28A807B68012B45D07B68022BA7
:1042AC0075D082E0464B5B68FB60454B1B6803F0A6
:1042BC008073002B7BD0FB689B0C03F00F03414AEF
:1042CC00D35C3B61FB6803F48033002B15D03C4B73
:1042DC005B685B0C03F001033B4AD35C7B61FB68BE
:1042EC0003F48033002B0DD0384A7B69B2FBF3F218
:1042FC003B6902FB03F3FB6104E03B69344A02FBBC
:10430C0003F3FB612E4B5B6803F48003B3F5800F62
:10431C0002D1FB69BB614AE0FB695B002D4AA2FB41
:10432C0003235B08BB6142E0254B1B6AFB60FB6807
:10433C0003F44073B3F5807F08D1FB6803F00203EC
:10434C00002B03D04FF40043BB611FE0FB6803F468
:10435C004073B3F5007F09D1194B5B6A03F002037C
:10436C00002B03D049F64043BB610FE0FB6803F41C
:10437C004073B3F5407F1CD1114B1B6803F4003321
:10438C00002B16D04FF22443BB6112E011E0FFF773
:10439C0085FE02460A4B5B689B0B03F0030301335B
:1043AC005B00B2FBF3F3BB6104E000BF02E000BFB3
:1043BC0000E000BFBB6918462037BD4680BD00BF7A
:1043CC0000100240B07E0008C07E000800127A0087
:1043DC0000093D00ABAAAAAA80B582B000AF7860F4
:1043EC007B68002B01D1012341E07B6893F83D30C1
:1043FC00DBB2002B06D17B68002283F83C20786866
:10440C00FDF7E0F87B68022283F83D207B681A6890
:10441C007B6804331946104600F0F0FC7B680122DF
:10442C0083F846207B68012283F83E207B680122BA
:10443C0083F83F207B68012283F840207B680122AF
:10444C0083F841207B68012283F842207B6801229B
:10445C0083F843207B68012283F844207B68012287
:10446C0083F845207B68012283F83D200023184601
:10447C000837BD4680BD80B582B000AF78607B68E0
:10448C00002B01D1012341E07B6893F83D30DBB276
:10449C00002B06D17B68002283F83C20786800F062
:1044AC0039F87B68022283F83D207B681A687B68A8
:1044BC0004331946104600F0A1FC7B68012283F8F6
:1044CC0046207B68012283F83E207B68012283F81A
:1044DC003F207B68012283F840207B68012283F80F
:1044EC0041207B68012283F842207B68012283F8FB
:1044FC0043207B68012283F844207B68012283F8E7
:10450C0045207B68012283F83D200023184608379C
:10451C00BD4680BD80B483B000AF786000BF0C375F
:10452C00BD4680BC7047000080B584B000AF786099
:10453C0039603B68002B09D17B6893F83E30DBB2C5
:10454C00012B14BF01230023DBB222E03B68042BB8
:10455C0009D17B6893F83F30DBB2012B14BF0123E8
:10456C000023DBB215E03B68082B09D17B6893F87C
:10457C004030DBB2012B14BF01230023DBB208E077
:10458C007B6893F84130DBB2012B14BF012300236D
:10459C00DBB2002B01D001235EE03B68002B04D181
:1045AC007B68022283F83E2013E03B68042B04D185
:1045BC007B68022283F83F200BE03B68082B04D178
:1045CC007B68022283F8402003E07B68022283F898
:1045DC0041207B681B6801223968184600F09AFE5E
:1045EC007B681B681E4A934207D17B681B685A6C18
:1045FC007B681B6842F400425A647B681B68184A4B
:10460C0093420ED07B681B68B3F1804F09D07B6856
:10461C001B68144A934204D07B681B68124A93426D
:10462C0011D17B681B689B6803F00703FB60FB6878
:10463C00062B10D07B681B681A687B681B6842F0DD
:10464C0001021A6007E07B681B681A687B681B68AC
:10465C0042F001021A60002318461037BD4680BD97
:10466C00002C0140000400400008004080B582B0DE
:10467C0000AF786039607B681B6800223968184687
:10468C0000F048FE7B681B68294A934217D17B686F
:10469C001B681A6A41F211131340002B0FD17B686F
:1046AC001B681A6A40F244431340002B07D17B6805
:1046BC001B685A6C7B681B6822F400425A647B6846
:1046CC001B681A6A41F211131340002B0FD17B683F
:1046DC001B681A6A40F244431340002B07D17B68D5
:1046EC001B681A687B681B6822F001021A603B6821
:1046FC00002B04D17B68012283F83E2013E03B6839
:10470C00042B04D17B68012283F83F200BE03B682B
:10471C00082B04D17B68012283F8402003E07B68DE
:10472C00012283F84120002318460837BD4680BD7E
:10473C00002C014080B584B000AF78603960002354
:10474C00FB733B680C2B55D801A252F823F000BF29
:10475C00914700080148000801480008014800087A
:10476C00AD4700080148000801480008014800084E
:10477C00C947000801480008014800080148000822
:10478C00E54700087B681B68DA687B681B6822F4C5
:10479C000072DA607B685B6A1846FEF7D3F82CE08F
:1047AC007B681B68DA687B681B6822F48062DA60BD
:1047BC007B689B6A1846FEF7C5F81EE07B681B6891
:1047CC00DA687B681B6822F40062DA607B68DB6A5B
:1047DC001846FEF7B7F810E07B681B68DA687B6850
:1047EC001B6822F48052DA607B681B6B1846FEF75C
:1047FC00A9F802E00123FB7300BFFB7B002B57D110
:10480C007B681B6800223968184600F083FD7B68C2
:10481C001B682A4A934217D17B681B681A6A41F2BB
:10482C0011131340002B0FD17B681B681A6A40F2DE
:10483C0044431340002B07D17B681B685A6C7B6880
:10484C001B6822F400425A647B681B681A6A41F2A6
:10485C0011131340002B0FD17B681B681A6A40F2AE
:10486C0044431340002B07D17B681B681A687B6894
:10487C001B6822F001021A603B68002B04D17B6894
:10488C00012283F83E2013E03B68042B04D17B68A3
:10489C00012283F83F200BE03B68082B04D17B6896
:1048AC00012283F8402003E07B68012283F8412039
:1048BC00FB7B18461037BD4680BD00BF002C014065
:1048CC0080B584B000AF78607B681B68DB68FB60E8
:1048DC007B681B681B69BB60BB6803F00203002B81
:1048EC0020D0FB6803F00203002B1BD07B681B68F5
:1048FC006FF002021A617B6801221A777B681B68D1
:10490C009B6903F00303002B03D0786800F063FA73
:10491C0005E0786800F056FA7868FBF725FD7B68AF
:10492C0000221A77BB6803F00403002B20D0FB682D
:10493C0003F00403002B1BD07B681B686FF0040290
:10494C001A617B6802221A777B681B689B6903F4E7
:10495C004073002B03D0786800F03DFA05E07868CE
:10496C0000F030FA7868FBF7FFFC7B6800221A77BE
:10497C00BB6803F00803002B20D0FB6803F008038E
:10498C00002B1BD07B681B686FF008021A617B68D8
:10499C0004221A777B681B68DB6903F00303002B86
:1049AC0003D0786800F017FA05E0786800F00AFA8E
:1049BC007868FBF7D9FC7B6800221A77BB6803F098
:1049CC001003002B20D0FB6803F01003002B1BD02E
:1049DC007B681B686FF010021A617B6808221A77DB
:1049EC007B681B68DB6903F44073002B03D0786889
:1049FC0000F0F1F905E0786800F0E4F97868FBF76D
:104A0C00B3FC7B6800221A77BB6803F00103002B10
:104A1C000CD0FB6803F00103002B07D07B681B68EC
:104A2C006FF001021A61786800F0C3F9BB6803F0FB
:104A3C008003002B0CD0FB6803F08003002B07D005
:104A4C007B681B686FF080021A61786800F03EFD8D
:104A5C00BB6803F04003002B0CD0FB6803F0400351
:104A6C00002B07D07B681B686FF040021A617868D6
:104A7C0000F0BAF9BB6803F02003002B0CD0FB68E4
:104A8C0003F02003002B07D07B681B686FF020021B
:104A9C001A61786800F011FD00BF1037BD4680BD6B
:104AAC0080B586B000AFF860B9607A600023FB7502
:104ABC00FB6893F83C30012B01D10223AEE0FB687C
:104ACC00012283F83C207B680C2B00F29F8001A212
:104ADC0052F823F0154B0008194C0008194C00082B
:104AEC00194C0008554B0008194C0008194C0008CB
:104AFC00194C0008974B0008194C0008194C000879
:104B0C00194C0008D74B0008FB681B68B96818469D
:104B1C0000F0E2F9FB681B689A69FB681B6842F0BD
:104B2C0008029A61FB681B689A69FB681B6822F093
:104B3C0004029A61FB681B689969BB681A69FB6877
:104B4C001B680A439A6164E0FB681B68B9681846E5
:104B5C0000F028FAFB681B689A69FB681B6842F432
:104B6C0000629A61FB681B689A69FB681B6822F4F7
:104B7C0080629A61FB681B689969BB681B691A02A1
:104B8C00FB681B680A439A6143E0FB681B68B968C1
:104B9C00184600F071FAFB681B68DA69FB681B6841
:104BAC0042F00802DA61FB681B68DA69FB681B6873
:104BBC0022F00402DA61FB681B68D969BB681A69C8
:104BCC00FB681B680A43DA6123E0FB681B68B96861
:104BDC00184600F0BBFAFB681B68DA69FB681B68B7
:104BEC0042F40062DA61FB681B68DA69FB681B68D7
:104BFC0022F48062DA61FB681B68D969BB681B69A7
:104C0C001A02FB681B680A43DA6102E00123FB7598
:104C1C0000BFFB68002283F83C20FB7D1846183748
:104C2C00BD4680BD80B584B000AF7860396000238C
:104C3C00FB737B6893F83C30012B01D10223B4E069
:104C4C007B68012283F83C207B68022283F83D209C
:104C5C007B681B689B68BB60BB6823F07703BB60F9
:104C6C00BB6823F47F43BB607B681B68BA689A609F
:104C7C003B681B68B3F5005F3ED0B3F5005F00F2F4
:104C8C008780B3F5805F00F08680B3F5805F7FD8B6
:104C9C00702B1AD0702B7BD8602B50D0602B77D810
:104CAC00502B3CD0502B73D8402B58D0402B6FD866
:104CBC00302B64D0302B6BD8202B60D0202B67D8B6
:104CCC00002B5CD0102B5AD062E07B6818683B68D4
:104CDC0099683B685A683B68DB6800F0FCFA7B68B3
:104CEC001B689B68BB60BB6843F07703BB607B6849
:104CFC001B68BA689A604FE07B6818683B689968D3
:104D0C003B685A683B68DB6800F0E5FA7B681B6817
:104D1C009A687B681B6842F480429A603CE07B682E
:104D2C0018683B6859683B68DB681A4600F05CFA07
:104D3C007B681B685021184600F0B3FA2CE07B68A6
:104D4C0018683B6859683B68DB681A4600F07AFAC9
:104D5C007B681B686021184600F0A3FA1CE07B6896
:104D6C0018683B6859683B68DB681A4600F03CFAE7
:104D7C007B681B684021184600F093FA0CE07B68B6
:104D8C001A683B681B681946104600F08AFA03E063
:104D9C000123FB7300E000BF7B68012283F83D20F8
:104DAC007B68002283F83C20FB7B18461037BD46FD
:104DBC0080BD80B483B000AF786000BF0C37BD46B7
:104DCC0080BC704780B483B000AF786000BF0C37F4
:104DDC00BD4680BC704780B483B000AF786000BF24
:104DEC000C37BD4680BC704780B483B000AF786090
:104DFC0000BF0C37BD4680BC7047000080B485B046
:104E0C0000AF786039607B681B68FB607B682F4A59
:104E1C0093420BD07B68B3F1804F07D07B682C4A50
:104E2C00934203D07B682B4A934208D1FB6823F052
:104E3C007003FB603B685B68FA681343FB607B683C
:104E4C00224A93420BD07B68B3F1804F07D07B682A
:104E5C001F4A934203D07B681E4A934208D1FB68D9
:104E6C0023F44073FB603B68DB68FA681343FB6018
:104E7C00FB6823F080023B685B691343FB607B6833
:104E8C00FA681A603B689A687B68DA623B681A6851
:104E9C007B689A627B680D4A934203D13B681A691E
:104EAC007B681A637B6801225A617B681B6903F07B
:104EBC000103002B05D07B681B6923F001027B6882
:104ECC001A6100BF1437BD4680BC7047002C0140EE
:104EDC00000400400008004080B487B000AF786048
:104EEC0039607B681B6A7B617B681B6A23F001025B
:104EFC007B681A627B685B683B617B689B69FB60C3
:104F0C00FB6823F07003FB60FB6823F00303FB607A
:104F1C003B681B68FA681343FB607B6923F0020350
:104F2C007B613B689B687A6913437B617B681C4A95
:104F3C0093420CD17B6923F008037B613B68DB68EF
:104F4C007A6913437B617B6923F004037B617B6883
:104F5C00134A934211D13B6923F480733B613B6943
:104F6C0023F400733B613B685B693A6913433B6113
:104F7C003B689B693A6913433B617B683A695A60A9
:104F8C007B68FA689A613B685A687B685A637B68ED
:104F9C007A691A6200BF1C37BD4680BC704700BFDF
:104FAC00002C014080B487B000AF786039607B681A
:104FBC001B6A7B617B681B6A23F010027B681A6298
:104FCC007B685B683B617B689B69FB60FB6823F4D7
:104FDC00E043FB60FB6823F44073FB603B681B6899
:104FEC001B02FA681343FB607B6923F020037B618F
:104FFC003B689B681B017A6913437B617B681D4A84
:10500C0093420DD17B6923F080037B613B68DB68A5
:10501C001B017A6913437B617B6923F040037B613D
:10502C007B68144A934213D13B6923F480633B6140
:10503C003B6923F400633B613B685B699B003A6905
:10504C0013433B613B689B699B003A6913433B618B
:10505C007B683A695A607B68FA689A613B685A685F
:10506C007B689A637B687A691A6200BF1C37BD46FD
:10507C0080BC7047002C014080B487B000AF7860D2
:10508C0039607B681B6A7B617B681B6A23F48072C6
:10509C007B681A627B685B683B617B68DB69FB60E1
:1050AC00FB6823F07003FB60FB6823F00303FB60D9
:1050BC003B681B68FA681343FB607B6923F400733D
:1050CC007B613B689B681B027A6913437B617B683D
:1050DC001D4A93420DD17B6923F400637B613B68CD
:1050EC00DB681B027A6913437B617B6923F4806361
:1050FC007B617B68144A934213D13B6923F4805340
:10510C003B613B6923F400533B613B685B691B01CA
:10511C003A6913433B613B689B691B013A69134332
:10512C003B617B683A695A607B68FA68DA613B6874
:10513C005A687B68DA637B687A691A6200BF1C372D
:10514C00BD4680BC704700BF002C014080B487B0C6
:10515C0000AF786039607B681B6A3B617B681B6AB7
:10516C0023F480527B681A627B685B687B617B6886
:10517C00DB69FB60FB6823F4E043FB60FB6823F412
:10518C004073FB603B681B681B02FA681343FB60AF
:10519C003B6923F400533B613B689B681B033A69F2
:1051AC0013433B617B680F4A934209D17B6923F41B
:1051BC0080437B613B685B699B017A6913437B612C
:1051CC007B687A695A607B68FA68DA613B685A686E
:1051DC007B681A647B683A691A6200BF1C37BD464B
:1051EC0080BC7047002C014080B487B000AFF860E1
:1051FC00B9607A60FB681B6A7B61FB681B6A23F0F1
:10520C000102FB681A62FB689B693B613B6923F0F6
:10521C00F0033B617B681B013A6913433B617B697B
:10522C0023F00A037B617A69BB6813437B61FB68DB
:10523C003A699A61FB687A691A6200BF1C37BD46ED
:10524C0080BC704780B487B000AFF860B9607A60FA
:10525C00FB681B6A7B61FB681B6A23F01002FB680E
:10526C001A62FB689B693B613B6923F470433B61A9
:10527C007B681B033A6913433B617B6923F0A003F2
:10528C007B61BB681B017A6913437B61FB683A69DC
:10529C009A61FB687A691A6200BF1C37BD4680BCF4
:1052AC00704780B485B000AF786039607B689B68CC
:1052BC00FB60FB6823F07003FB603A68FB681343E8
:1052CC0043F00703FB607B68FA689A6000BF1437F1
:1052DC00BD4680BC704780B487B000AFF860B96041
:1052EC007A603B60FB689B687B617B6923F47F433E
:1052FC007B613B681A027B681A43BB6813437A696B
:10530C0013437B61FB687A699A6000BF1C37BD460A
:10531C0080BC704780B487B000AFF860B9607A6029
:10532C00BB6803F01F03012202FA03F37B61FB68E5
:10533C001A6A7B69DB431A40FB681A62FB681A6ABB
:10534C00BB6803F01F03796801FA03F31A43FB6887
:10535C001A6200BF1C37BD4680BC704780B485B054
:10536C0000AF786039607B6893F83C30012B01D139
:10537C00022346E07B68012283F83C207B680222F2
:10538C0083F83D207B681B685B68FB607B681B684F
:10539C009B68BB60FB6823F07003FB603B681B6879
:1053AC00FA681343FB607B681B68FA685A607B6879
:1053BC001B68164A93420ED07B681B68B3F1804F72
:1053CC0009D07B681B68124A934204D07B681B6827
:1053DC00104A93420CD1BB6823F08003BB603B683E
:1053EC005B68BA681343BB607B681B68BA689A60D9
:1053FC007B68012283F83D207B68002283F83C20E7
:10540C00002318461437BD4680BC7047002C014061
:10541C00000400400008004080B485B000AF786004
:10542C0039600023FB607B6893F83C30012B01D181
:10543C0002233DE07B68012283F83C20FB6823F0CB
:10544C00FF023B68DB681343FB60FB6823F440728C
:10545C003B689B681343FB60FB6823F480623B68EA
:10546C005B681343FB60FB6823F400623B681B68BA
:10547C001343FB60FB6823F480523B681B691343A6
:10548C00FB60FB6823F400523B685B691343FB60D1
:10549C00FB6823F480423B68DB691343FB607B6849
:1054AC001B68FA685A647B68002283F83C2000234E
:1054BC0018461437BD4680BC704780B483B000AF2B
:1054CC00786000BF0C37BD4680BC704780B483B099
:1054DC0000AF786000BF0C37BD4680BC704780B50C
:1054EC0082B000AF78607B68002B01D1012342E0D1
:1054FC007B6893F84130DBB2002B06D17B6800222D
:10550C0083F840207868FCF733F97B68242283F811
:10551C0041207B681B68DA687B681B6822F40052A8
:10552C00DA60786800F0D4FC7B681B681A697B68C9
:10553C001B6822F490421A617B681B685A697B686D
:10554C001B6822F02A025A617B681B68DA687B6848
:10555C001B6842F40052DA607B6800225A647B6854
:10556C00202283F841207B68202283F842207B682C
:10557C0000225A63002318460837BD4680BD80B50B
:10558C0084B000AFF860B9601346FB80FB6893F8F9
:10559C004230DBB2202B12D1BB68002B02D0FB882F
:1055AC00002B01D101230BE0FB6800221A63FB885E
:1055BC001A46B968F86800F0B6FA034600E0022310
:1055CC0018461037BD4680BD80B5BAB000AF7860C4
:1055DC007B681B681B68C7F8E4307B681B68DB685A
:1055EC00C7F8E0307B681B685B69C7F8DC300023C8
:1055FC00C7F8D8300023C7F8D430D7F8E43003F01C
:10560C000F03C7F8D830D7F8D830002B0FD1D7F804
:10561C00E43003F02003002B09D0D7F8E03003F07E
:10562C002003002B03D0786800F093FB5BE2D7F8E3
:10563C00D830002B00F0DE80D7F8DC3003F001030B
:10564C00002B06D1D7F8E03003F49073002B00F058
:10565C00D180D7F8E43003F00103002B0BD0D7F83E
:10566C00E03003F48073002B05D07B685B6C43F057
:10567C0001027B685A64D7F8E43003F00403002B72
:10568C000BD0D7F8DC3003F00103002B05D07B687E
:10569C005B6C43F002027B685A64D7F8E43003F089
:1056AC000203002B0BD0D7F8DC3003F00103002BE6
:1056BC0005D07B685B6C43F004027B685A64D7F8B6
:1056CC00E43003F00803002B11D0D7F8E03003F0DE
:1056DC002003002B05D1D7F8DC3003F00103002B9D
:1056EC0005D07B685B6C43F008027B685A647B686E
:1056FC005B6C002B00F0F281D7F8E43003F0200350
:10570C00002B08D0D7F8E03003F02003002B02D098
:10571C00786800F01EFB7B681B685B6903F0400334
:10572C00002B14BF01230023DBB2C7F8D4307B68F5
:10573C005B6C03F00803002B03D1D7F8D430002B9B
:10574C004FD0786800F028FA7B681B685B6903F01F
:10575C004003002B41D07B681B681433C7F89C3086
:10576C00D7F89C3053E8003FC7F89830D7F89830FA
:10577C0023F04003C7F8D0307B681B681433D7F88C
:10578C00D020C7F8A820C7F8A430D7F8A410D7F8B1
:10579C00A82041E80023C7F8A030D7F8A030002B90
:1057AC00D9D17B68DB6B002B13D07B68DB6B7E4A1B
:1057BC005A637B68DB6B1846FDF7C4F80346002B75
:1057CC0016D07B68DB6B5B6B7A68D26B10469847A4
:1057DC000EE0786800F093F90AE0786800F08FF931
:1057EC0006E0786800F08BF97B6800225A6475E15A
:1057FC0000BF73E17B681B6B012B40F04F81D7F826
:10580C00E43003F01003002B00F04881D7F8E030AF
:10581C0003F01003002B00F041810023BB607B6878
:10582C001B681B68BB607B681B685B68BB60BB68E4
:10583C007B681B685B6903F04003002B00F0B680AB
:10584C007B68DB6B1B685B68A7F8BE30B7F8BE30B3
:10585C00002B00F045817B689B8DB7F8BE209A42E7
:10586C0080F03E817B68B7F8BE20DA857B68DB6B05
:10587C009B69202B00F088807B681B680C33C7F871
:10588C008830D7F8883053E8003FC7F88430D7F811
:10589C00843023F48073C7F8B8307B681B680C33F2
:1058AC00D7F8B820C7F89420C7F89030D7F89010E4
:1058BC00D7F8942041E80023C7F88C30D7F88C3007
:1058CC00002BD9D17B681B6814337B677B6F53E843
:1058DC00003F3B673B6F23F00103C7F8B4307B6894
:1058EC001B681433D7F8B420C7F88020FB67F96F16
:1058FC00D7F8802041E80023BB67BB6F002BE1D1B8
:10590C007B681B6814333B663B6E53E8003FFB65BA
:10591C00FB6D23F04003C7F8B0307B681B68143371
:10592C00D7F8B020FA66BB66B96EFA6E41E8002370
:10593C007B667B6E002BE3D17B68202283F84220B0
:10594C007B6800221A637B681B680C33FB64FB6C5E
:10595C0053E8003FBB64BB6C23F01003C7F8AC30BA
:10596C007B681B680C33D7F8AC20BA657B65796D06
:10597C00BA6D41E800233B653B6D002BE3D17B689E
:10598C00DB6B1846FCF7A2FF7B6802225A637B682C
:10599C009A8D7B68DB8D9BB2D31A9BB219467868C3
:1059AC0000F0B6F89CE000BF695C00087B689A8D3B
:1059BC007B68DB8D9BB2D31AA7F8CE307B68DB8D6E
:1059CC009BB2002B00F08E80B7F8CE30002B00F08D
:1059DC0089807B681B680C33BB63BB6B53E8003F4F
:1059EC007B637B6B23F49073C7F8C8307B681B68B0
:1059FC000C33D7F8C8207A643B64396C7A6C41E874
:105A0C000023FB63FB6B002BE3D17B681B68143317
:105A1C007B627B6A53E8003F3B623B6A23F00103E5
:105A2C00C7F8C4307B681B681433D7F8C4203A63BA
:105A3C00FB62F96A3A6B41E80023BB62BB6A002B3C
:105A4C00E3D17B68202283F842207B6800221A6312
:105A5C007B681B680C333B613B6953E8003FFB6080
:105A6C00FB6823F01003C7F8C0307B681B680C334D
:105A7C00D7F8C020FA61BB61B969FA6941E8002323
:105A8C007B617B69002BE3D17B6802225A63B7F8F8
:105A9C00CE301946786800F03BF823E0D7F8E430B4
:105AAC0003F08003002B09D0D7F8E03003F080031B
:105ABC00002B03D0786800F0E5F814E0D7F8E43058
:105ACC0003F04003002B0ED0D7F8E03003F0400376
